:060000008031D52C000048
:0800080083018031200077081C
:10001000A0007808A1007908A2007A08A300850151
:1000200091308400801C1628911890288501913009
:100030008400801D1D289119F4298B1D21280B187F
:100040002A282008F7002108F8002208F9002308D0
:10005000FA000900FF3021008C0020000C08143940
:100060002100A3002308200046062100A200A208C8
:10007000031985282700131D6028131121000C1572
:1000800020000C1D512821000C1620000C1E4C28AD
:10009000B60A0319B70A502836080319B703B6037E
:1000A0005E2821000C1620000C1E5B283608031960
:1000B000B703B6035E28B60A0319B70A83282700D8
:1000C000131E8428131221000C1620000C1E762803
:1000D00021000C1520000C1D722836080319B703E7
:1000E000B6037528B60A0319B70A832821000C1530
:1000F00020000C1D7F28B60A0319B70A832836088A
:100100000319B703B6032700210023082000C60007
:10011000FF302700130693050B10803120002128A3
:10012000BC08031D20293F0BC2284108F9004008E4
:10013000F800F80DF90DF80DF90DF80DF90DF80DA1
:10014000F90DF80DF90DF80DF90D79082C00920054
:100150007808910020004508F9004408F800F80DDF
:10016000F90DF80DF90DF80DF90DF80DF90DF80D63
:10017000F90DF80DF90D79082C0095007808940018
:100180001E2920003F08023C031DF3284508F90002
:100190004408F800F80DF90DF80DF90DF80DF90DFA
:1001A000F80DF90DF80DF90DF80DF90D79082C0081
:1001B00092007808910020004108F9004008F800FA
:1001C000F80DF90DF80DF90DF80DF90DF80DF90D03
:1001D000F80DF90DF80DF90D79082C009500780847
:1001E00094001E2920004508F9004408F800F80D85
:1001F000F90DF80DF90DF80DF90DF80DF90DF80DD3
:10020000F90DF80DF90D79082C009200780891008D
:1002100020004508F9004408F800F80DF90DF80D24
:10022000F90DF80DF90DF80DF90DF80DF90DF80DA2
:10023000F90D79082C00950078089400F029200029
:100240003C0BF12936083802BD003708393BBE00A7
:100250003E08FA003D08BE1F35293D08003CF70066
:100260000030FA003E08FA3B77082100A2007A0825
:10027000A300A31BC029A308031D422922080A3C8E
:100280000318C0292000B71F4829B91F54294A293B
:10029000B91B812937083902031C8129031D542900
:1002A00038083602031881294508F9004408F80087
:1002B000F80DF90DF80DF90DF80DF90DF80DF90D12
:1002C000F80DF90DF80DF90D79082C009200780859
:1002D000910020004108F9004008F800F80DF90DE0
:1002E000F80DF90DF80DF90DF80DF90DF80DF90DE2
:1002F000F80DF90D79082C00950078089400BD29B7
:100300002000B91F8629B71F92298829B71BBE294B
:1003100039083702031CBE29031D9229360838020A
:100320000318BE294108F9004008F800F80DF90D3E
:10033000F80DF90DF80DF90DF80DF90DF80DF90D91
:10034000F80DF90D79082C00920078089100200032
:100350004508F9004408F800F80DF90DF80DF90DFD
:10036000F80DF90DF80DF90DF80DF90DF80DF90D61
:1003700079082C009500780894002000F1292100CC
:1003800020003908B7003808B6004508F9004408CD
:10039000F800F80DF90DF80DF90DF80DF90DF80D3F
:1003A000F90DF80DF90DF80DF90D79082C009200F2
:1003B0007808910020004508F9004408F800F80D7D
:1003C000F90DF80DF90DF80DF90DF80DF90DF80D01
:1003D000F90DF80DF90D79082C00950078089400B6
:1003E00020009110803121282400941AFF29200038
:1003F000CD012400141DFF292000CD17240020006A
:100400004D08CD0A2100A20022087F3C031C282AA7
:1004100024001513141C0A2A110815162100A30024
:10042000220B172A23082000B400262A21002208C4
:10043000013C0318252A02302202043E84002030A9
:1004400085000318850A230880002000532A210014
:100450002208803C031D542A20003608BA003708C1
:10046000BB001A3035078400203085000318850A48
:1004700000082100A4002408A50024001108210080
:10048000250824009100151620009111240014184D
:10049000472AF801161FF80A2000B50A3508013C62
:1004A000031CB50164002100200091118031212836
:1004B0008E30F7006108F8006008F900FA01F808CA
:1004C000031D6C2A7908F800F9010830F702F808D2
:1004D000031D6C2AF701742A0310F81B732AF90D07
:1004E000F80DF7036C2AF8130800D001CF01440877
:1004F0004202DC004508433BDD005D08DF005C088C
:10050000DE00E101FF30E000F801F901F701FA0136
:100510006108031D8E2A60080319A82A1030E20022
:100520000310DE0DDF0DF70DFA0D61087A02031DD1
:100530009B2A60087702031CA42A6008F702031CA8
:10054000FA036108FA020314F80DF90DE20B902A80
:100550007908FA007808E0007A08E10058227A0861
:10056000D4007908D3007808D2007708D100E101DF
:100570004E08E00058227A08DF007908DE0078088B
:10058000DD007708DC005408E3005308E20052085D
:10059000E1005108E0005C0803193B2BE60060080D
:1005A00003193B2BE6070318DC2A7F30E602031C05
:1005B0003B2B03193B2BE02A8130E60703183B2B2A
:1005C0006608F700F801F901FA015D08EA00EA1788
:1005D0005E08E9005F08E8001830E600E701681CE3
:1005E000092B6308FA07031CFB2AF90A031DFB2ADF
:1005F000F80A0319E7176208F907031C022BF80A27
:100600000319E7176108DE00DE175E08F807031814
:10061000E717E70DF80CF90CFA0CEA0CE90CE80CFA
:100620000310E60BEE2A0130F70703183B2BF81BEB
:10063000202BEA0DFA0DF90DF80DF70303193B2BEA
:10064000EA1F312BFA0A031D312BF90A031D312B46
:10065000F80A031D312BF80CF90CFA0CF70A0319F0
:100660003B2B5D08E7006108E706E71F392BF81709
:100670003F2BF8133F2BF701F801F901FA017A0833
:10068000DF007908DE007808DD007708DC00450827
:10069000E1004408E000582283105F08E3005E0890
:1006A000E2005D08E1005C08E0007A08E7007908F4
:1006B000E6007808E5007708E40080308318E50656
:1006C000EA01EB016108E9006508E9066008031921
:1006D000502CE800F70064080319592CE8020319AC
:1006E000F42B031CB12B6508EE00EE176608ED0035
:1006F0006708EC00EB010310EE0CED0CEC0CEB0CBE
:10070000E80B7A2BE91F872B6A146D2C6A1068108E
:100710006A162030850043308400822C6A12E91B5F
:100720009B2B681CA62BEE0CED0CEC0CEB0CF70ACB
:100730000319682CA62BEE1BA92B0310EB0DEC0D57
:10074000ED0DEE0DF7030319682C9B2B6A17152C82
:100750006A136108E900E91FAF2BEE17612CEE1355
:10076000612C6408E800F7006008E8026108EE0008
:10077000EE176208ED006308EC00EB010310EE0CCD
:10078000ED0CEC0CEB0CE80BBD2BE91FCA2BEA14AB
:100790006D2CEA106810EA1620308500473084007E
:1007A000822CEA12E91BDE2B681CE92BEE0CED0C07
:1007B000EC0CEB0CF70A0319682CE92BEE1BEC2B65
:1007C0000310EB0DEC0DED0DEE0DF7030319682C86
:1007D000DE2BEA17152CEA136508E900E91FF22B56
:1007E000EE17612CEE13612C6508EE00EE1766081B
:1007F000ED006708EC00E91F012CEE136A156D2C63
:100800006A11EB0168102030850043308400822C8F
:10081000E91B2B2C6108E900681C152CEE0CED0C73
:10082000EC0CEB0CF70A0319682CEB1F262CEC0AD6
:10083000031D262CED0A031D262CEE0A031D262C73
:10084000EE0CED0CEC0CF70A0319682C6A1BA82BB4
:10085000EA1BEB2B4A2C8030EE06EE1F332C6D2C5E
:100860006508E900402C6108E900EE08031D402CF2
:10087000ED08031D402CEC08031D402CF701612CF2
:10088000EE1B4A2C0310EB0DEC0DED0DEE0DF70BEE
:10089000402C682CE91F4E2CEE17612CEE13612CB6
:1008A0006408F7006508EE006608ED006708EC00D4
:1008B000612C6008F7006108EE006208ED00630833
:1008C000EC006E08F8006D08F9006C08FA009E2C28
:1008D000F701F801F901FA019E2CEB01EC09ED0991
:1008E000EE09EB09EB0A031D7B2CEC0A031D7B2CA4
:1008F000ED0A0319EE0A6A18862BEA18C92B6A1941
:10090000002C302C0008EC07031C8C2CED0A031D76
:100910008C2CEE0A031968141100ED07031C932CAC
:10092000EE0A031968141100801F803AEE070318BD
:1009300068146A1A8E2BEA1AD12B082C7A08D80070
:100940007908D7007808D6007708D5005808DF0066
:100950005708DE005608DD005508DC008E30F70031
:100960005C08F7025D08F9005E08F800F917F7085F
:100970000319C52C0310F908031DC12CF80803192D
:10098000C52CF90CF80CF70BBA2CDD1FCC2CF80990
:10099000F909F80A0319F90A7908D0007808CF0094
:1009A0004F08F8005008F90008007A30210099003B
:1009B000D7308E008E002400171097109711223028
:1009C0009200FF30930036309500161496172000E1
:1009D000B501B701B601B901B801BC01BE01BD0145
:1009E000BF01C101C0010230C3007430C200C501A3
:1009F000C401C6010330CD0023008C018E0122000A
:100A000092019101940193012000BA01BB01C70139
:100A1000C8017830F80006389C009C309B000F30ED
:100A2000210097008B15FF302700910492048B154D
:100A3000111512158B15111612162100911491150E
:100A4000C0308B04D7308E00C0302C009300D730DC
:100A500021008E00C0302C00960020004508F900CF
:100A60004408F800F80DF90DF80DF90DF80DF90D21
:100A7000F80DF90DF80DF90DF80DF90D79082C00A8
:100A800092007808910020004508F9004408F80019
:100A9000F80DF90DF80DF90DF80DF90DF80DF90D2A
:100AA000F80DF90DF80DF90D79082C00950078086E
:100AB000940020003408103A03196E2D013A0319EE
:100AC000762D313A0319812D013A0319962D113AE9
:100AD0000319AE2D703A0319B42DB92DBC012408A9
:100AE000BF004308C1004208C000B92DBC01240862
:100AF000BF002508CE0075227908C1007808C00023
:100B0000B92D0130BC00FA012408B8007A08B900F8
:100B10003808FA000030B8007A08B9002508B8048F
:100B20004308C1004208C000B401B92D0130BC0027
:100B3000FA012408B8007A08B9003808FA00003031
:100B4000B8007A08B9002508B8042608CE00752236
:100B50007908C1007808C000B401B92D3608BA0080
:100B60003708BB00B401B92DB701B601B901B8010E
:060B7000B4015A2D6300E0
:020000040001F9
:04000E009C39FF1FFB
:00000001FF
;PIC16F1503
;CRC=341E  CREATED="08-oct.-21 18:09"
